S00C0000534146452E73726563F9
S11300000C942A000C9447000C9447000C9447006D
S11300100C9447000C9447000C9447000C94470040
S11300200C9447000C9447000C9447000C94470030
S11300300C9447000C9447000C9447000C94470020
S11300400C9447000C9447000C9447000C94470010
S11300500C94470011241FBECFE5D8E0DEBFCDBF0E
S113006010E0A0E6B0E0ECEFF7E002C005900D92DE
S1130070AA3CB107D9F720E0AAECB0E001C01D9278
S1130080AE3CB207E1F70E94D5020C94FC030C9439
S11300900000823419F118F4813439F0089583345E
S11300A0B1F1843409F44CC00895413059F42AB3B1
S11300B081E090E002C0880F991F6A95E2F7822BD5
S11300C08ABB08952AB381E090E002C0880F991F8B
S11300D06A95E2F7809582238ABB0895413059F4EA
S11300E027B381E090E002C0880F991F6A95E2F778
S11300F0822B87BB089527B381E090E002C0880F6C
S1130100991F6A95E2F78095822387BB0895413051
S113011059F424B381E090E002C0880F991F6A95D6
S1130120E2F7822B84BB089524B381E090E002C0FF
S1130130880F991F6A95E2F78095822384BB0895FE
S1130140413059F421B381E090E002C0880F991F37
S11301506A95E2F7822B81BB089521B381E090E098
S113016002C0880F991F6A95E2F78095822381BBAC
S11301700895823419F118F4813439F008958334E0
S1130180B1F1843409F44CC00895413059F42BB3CF
S113019081E090E002C0880F991F6A95E2F7822BF4
S11301A08BBB08952BB381E090E002C0880F991FA8
S11301B06A95E2F7809582238BBB0895413059F408
S11301C028B381E090E002C0880F991F6A95E2F796
S11301D0822B88BB089528B381E090E002C0880F89
S11301E0991F6A95E2F78095822388BB0895413070
S11301F059F425B381E090E002C0880F991F6A95F5
S1130200E2F7822B85BB089525B381E090E002C01C
S1130210880F991F6A95E2F78095822385BB08951C
S1130220413059F422B381E090E002C0880F991F55
S11302306A95E2F7822B82BB089522B381E090E0B5
S113024002C0880F991F6A95E2F78095822382BBCA
S113025008958234D9F018F4813431F04DC08334D8
S113026039F18434B9F148C029B381E090E0062E15
S113027002C0880F991F0A94E2F730E08223932387
S113028002C0959587956A95E2F7089526B381E0B3
S113029090E0062E02C0880F991F0A94E2F730E01E
S11302A08223932302C0959587956A95E2F7089572
S11302B023B381E090E0062E02C0880F991F0A94B0
S11302C0E2F730E08223932302C0959587956A95DF
S11302D0E2F7089520B381E090E0062E02C0880F73
S11302E0991F0A94E2F730E08223932302C0959584
S11302F087956A95E2F7089580E00895823459F06D
S113030018F4813431F00895833439F0843439F0A9
S113031008956ABB089567BB089564BB089561BBE3
S11303200895823459F018F4813431F008958334F7
S113033039F0843439F008956BBB089568BB08958F
S113034065BB089562BB08950E94B90008959FBBE0
S11303508EBB6DBBE29AE19AE199FECF08959FBBF3
S11303608EBBE09A8DB30895CF93DF93D82FC0E06E
S113037041E06C2F8D2F0E944900CF5FC430C1F73C
S113038040E06C2F8D2F0E94490041E06C2F8D2F8F
S11303900E94A401CF5FC83099F7DF91CF910895EF
S11303A0FF920F931F93CF93DF93CDB7DEB7609780
S11303B00FB6F894DEBF0FBECDBF082F80E1E0E694
S11303C0F0E0DE01119601900D928A95E1F7F12C8F
S11303D041E060E0802F0E94B90041E061E0802F9D
S11303E00E94B90041E062E0802F0E94B90041E020
S11303F063E0802F0E94B90040E06F2D802F0E949F
S1130400B90010E064E0610F802F0E94290181117E
S11304100DC0E1E0F0E0EC0FFD1F84E0F89EE00D7C
S1130420F11D1124E10FF11D808108C01F5F1430FC
S113043049F7F39484E0F812CBCF8FEF60960FB6B0
S1130440F894DEBF0FBECDBFDF91CF911F910F9106
S1130450FF90089541E060E082E40E94B9008FE9D2
S11304609FE00197F1F700C0000040E060E082E403
S11304700E94B9008FE99FE00197F1F700C00000E6
S113048008950E94910140E061E082E40E94B90075
S11304900E942A028FEC97E00197F1F700C0000058
S11304A008951F93CF93DF93C82F162FD42F2FEFC8
S11304B081EE94E0215080409040E1F700C00000BC
S11304C06FEF8C2F0E947E0141E06D2F812F0E94DF
S11304D0490061E06D0F41E0812F0E94490062E014
S11304E06D0F41E0812F0E94490068E38C2F0E9428
S11304F0410261E08C2F0E9441028FE19EE401974A
S1130500F1F700C000006EE08C2F0E94410266E00B
S11305108C2F0E944102DF91CF911F9108950E9478
S1130520910141E061E082E40E94B9000E942A0244
S11305308FEC97E00197F1F700C0000008951F9336
S1130540CF93DF93EB016881662341F0182F219646
S1130550812F0E948F0269916111FACFDF91CF91AF
S11305601F91089561E00E9441028FE19EE401978A
S1130570F1F700C0000008959FEF960F923070F4D9
S11305809FEF940F903160F4613019F42FE7240F3A
S113059008C0623031F42FEB240F03C020E801C0FF
S11305A020E8622F0E9441020895DF92EF92FF92A9
S11305B00F931F93CF93DF9340E050E062E481E414
S11305C00E94510284E40E94B40180E090E00E9401
S11305D0AF018F3F09F0FAC060E770E081E40E9448
S11305E09F0200E010E084E40E94D001C82F8F3FF6
S11305F0D1F3682F81E40E948F022FEF83EC99E0FE
S1130600215080409040E1F700C000004BE0400FD3
S113061061E081E40E94BC026AE281E40E948F02EC
S11306200F5F1F4F6C2FC8010E94A70104301105F2
S1130630D1F660E080E090E00E94A701C7C081E4A9
S11306400E94B202F70103830283018300836BE7F4
S113065070E081E40E949F02FFEF23EC89E0F150F7
S113066020408040E1F700C00000CAECD0E01CE06C
S113067084E40E94D00188838F3FD1F3682F81E402
S11306800E948F029FEFE3ECF9E09150E040F040CC
S1130690E1F700C00000412F61E081E40E94BC0248
S11306A06AE281E40E948F022FEF83EC99E02150EB
S11306B080409040E1F700C000001F5F2196103198
S11306C0B9F681E090E00E94AF01F70190818913AF
S11306D034C082E090E00E94AF01F7019181891358
S11306E02CC083E090E00E94AF01F701928189134E
S11306F024C084E090E00E94AF01F7019381891344
S11307001CC081E40E94B20267E870E081E40E94A8
S11307109F0241E062E081E40E94BC0266E970E06D
S113072081E40E949F02FFEF23EC89E0F150204016
S11307308040E1F700C0000055C090E3D91651F1A4
S113074081E40E94B20261EA70E081E40E949F02A7
S113075041E062E081E40E94BC0260EB70E081E46D
S11307600E949F02EFEFF3EC29E0E150F0402040BB
S1130770E1F700C000006D2D81E40E948F028FEF2D
S113078093ECE9E081509040E040E1F700C00000C4
S1130790DA9455CF81E40E94B20261EA70E081E408
S11307A00E949F0241E062E081E40E94BC026DEB82
S11307B070E081E40E949F02FFEF23EC89E0F15096
S11307C020408040E1F700C000000CC00F2EF2E38F
S11307D0DF2EF02D0F2EFAECEF2EF0E0FF2EF02D91
S11307E00FEF2DCF80E090E0DF91CF911F910F911B
S10F07F0FF90EF90DF900895F894FFCF85
S11307FC3738392F3435362A3132332D41303D2BAD
S113080C5345542050415353203A00434845434BDD
S113081C20504153533A00524947485420504153B5
S113082C53574F52440053414645204F50454E4474
S113083C0057524F4E472050415353574F52440088
S113084C5452494553204C454654203A0053414692
S10D085C454420434C4F534544002B
S9030000FC
